:020000040000FA
:10000000000000EB240000EB2C008FE2000C90E8D5
:1000100000A08AE000B08BE001704AE20B005AE1D8
:100020000000001A1C0000EB0F00BAE818E04FE2D5
:10003000010013E303F0471013FF2FE13C0200001F
:100040004C0200000030B0E30040B0E30050B0E3E9
:100050000060B0E3102052E27800A128FCFFFF8A84
:10006000822EB0E13000A128003081451EFF2FE133
:1000700001C08FE21CFF2FE11FB5059886460FBC1B
:10008000009C02B07047000001C08FE21CFF2FE10E
:1000900030B47546AE4630BC704700001A0000EB25
:1000A0000210A0E1F1FFFFEB1CC09FE50FC08CE048
:1000B00001001CE30DE08F120FE0A0011CFF2FE1F7
:1000C00001C08FE21CFF2FE100F050F82401000076
:1000D0007847C04603002DE9EAFFFFEB0300BDE8C7
:1000E000290000EB0C009FE50C109FE504209FE524
:1000F00008309FE51EFF2FE16000004060040040D3
:100100006000004070477047704700000E50A0E14B
:100110001A0000EB05E0A0E10050B0E10D10A0E1F5
:100120000A30A0E10700C0E300D0A0E160D08DE27A
:1001300020402DE9EAFFFFEB2040BDE80060A0E38E
:100140000070A0E30080A0E300B0A0E30710C1E3CB
:1001500005C0A0E1C009ACE8C009ACE8C009ACE842
:10016000C009ACE801D0A0E11EFF2FE110B50400EA
:10017000C046C0462000FFF7ABFF10BC08BC1847C4
:1001800000009FE51EFF2FE10000004001C08FE24C
:100190001CFF2FE101491820ABDFFEE7260002001B
:1001A0001EFF2FE10500A0E324109FE5000081E57C
:1001B0008300A0E30015C1E10C00C1E50000C1E52A
:1001C0000100A0E30400C1E50300A0E30C00C1E5C9
:1001D0001EFF2FE100C002E0F1FFFFEB64009FE58E
:1001E000180090E5FF0C80E3FF0080E354109FE5CA
:1001F000180081E50100A0E1080090E50F0880E308
:10020000080081E50E0000EA100000EB0020A0E1EC
:10021000090000EA430052E30200001A28009FE5AB
:1002200020109FE5140081E5410052E30200001A0E
:1002300014009FE50C109FE51C0081E50D0052E3C2
:10024000F3FFFF1AEFFFFFEA008002E0FFFF00006C
:100250000000A0E118109FE51410D1E5011001E2A3
:10026000000051E3FAFFFF0A04109FE50000D1E50A
:100270001EFF2FE100C000E08802000000000040E7
:08028000E80400004400000046
:0400000500000000F7
:00000001FF
